{
  "contractName": "trc",
  "abi": [
    {
      "constant": true,
      "inputs": [],
      "name": "get",
      "outputs": [
        {
          "name": "",
          "type": "string"
        }
      ],
      "payable": false,
      "stateMutability": "pure",
      "type": "function"
    },
    {
      "constant": false,
      "inputs": [],
      "name": "betForTrue",
      "outputs": [],
      "payable": true,
      "stateMutability": "payable",
      "type": "function"
    },
    {
      "constant": false,
      "inputs": [],
      "name": "betForFake",
      "outputs": [],
      "payable": true,
      "stateMutability": "payable",
      "type": "function"
    },
    {
      "constant": true,
      "inputs": [],
      "name": "showBalance",
      "outputs": [
        {
          "name": "",
          "type": "uint256"
        }
      ],
      "payable": false,
      "stateMutability": "view",
      "type": "function"
    },
    {
      "constant": true,
      "inputs": [],
      "name": "howManyBets",
      "outputs": [
        {
          "name": "",
          "type": "uint256"
        },
        {
          "name": "",
          "type": "uint256"
        }
      ],
      "payable": false,
      "stateMutability": "view",
      "type": "function"
    },
    {
      "constant": true,
      "inputs": [],
      "name": "getAddress",
      "outputs": [
        {
          "name": "",
          "type": "address"
        }
      ],
      "payable": false,
      "stateMutability": "view",
      "type": "function"
    },
    {
      "constant": false,
      "inputs": [],
      "name": "terminateTheBet",
      "outputs": [],
      "payable": false,
      "stateMutability": "nonpayable",
      "type": "function"
    }
  ],
  "bytecode": "0x608060405260008055600060015534801561001957600080fd5b50610613806100296000396000f300608060405260043610610083576000357c0100000000000000000000000000000000000000000000000000000000900463ffffffff16806338cc4831146100885780635811b161146100df5780635840c102146100e95780636d4ce63c146100f357806381b2d07b1461018357806397729c46146101ae5780639a2bba11146101e0575b600080fd5b34801561009457600080fd5b5061009d6101f7565b604051808273ffffffffffffffffffffffffffffffffffffffff1673ffffffffffffffffffffffffffffffffffffffff16815260200191505060405180910390f35b6100e7610239565b005b6100f16102c7565b005b3480156100ff57600080fd5b50610108610355565b6040518080602001828103825283818151815260200191508051906020019080838360005b8381101561014857808201518184015260208101905061012d565b50505050905090810190601f1680156101755780820380516001836020036101000a031916815260200191505b509250505060405180910390f35b34801561018f57600080fd5b50610198610392565b6040518082815260200191505060405180910390f35b3480156101ba57600080fd5b506101c36103b1565b604051808381526020018281526020019250505060405180910390f35b3480156101ec57600080fd5b506101f56103c2565b005b60006005600081548110151561020957fe5b9060005260206000200160009054906101000a900473ffffffffffffffffffffffffffffffffffffffff16905090565b670de0b6b3a76400003414151561024f57600080fd5b60063390806001815401808255809150509060018203906000526020600020016000909192909190916101000a81548173ffffffffffffffffffffffffffffffffffffffff021916908373ffffffffffffffffffffffffffffffffffffffff1602179055505060018060008282540192505081905550565b670de0b6b3a7640000341415156102dd57600080fd5b60053390806001815401808255809150509060018203906000526020600020016000909192909190916101000a81548173ffffffffffffffffffffffffffffffffffffffff021916908373ffffffffffffffffffffffffffffffffffffffff1602179055505060016000808282540192505081905550565b60606040805190810160405280600c81526020017f48656c6c6f20576f726c64210000000000000000000000000000000000000000815250905090565b60003073ffffffffffffffffffffffffffffffffffffffff1631905090565b600080600154600054915091509091565b6000806000806000546001541115610498576001543073ffffffffffffffffffffffffffffffffffffffff16318115156103f857fe5b049350600092505b6001548310156104975760068381548110151561041957fe5b9060005260206000200160009054906101000a900473ffffffffffffffffffffffffffffffffffffffff1673ffffffffffffffffffffffffffffffffffffffff166108fc859081150290604051600060405180830381858888f19350505050158015610489573d6000803e3d6000fd5b508280600101935050610400565b5b6000546001541015610568576000543073ffffffffffffffffffffffffffffffffffffffff16318115156104c857fe5b049150600090505b600054811015610567576005818154811015156104e957fe5b9060005260206000200160009054906101000a900473ffffffffffffffffffffffffffffffffffffffff1673ffffffffffffffffffffffffffffffffffffffff166108fc839081150290604051600060405180830381858888f19350505050158015610559573d6000803e3d6000fd5b5080806001019150506104d0565b5b60009350600091506005600061057e91906105a1565b6006600061058c91906105a1565b60008081905550600060018190555050505050565b50805460008255906000526020600020908101906105bf91906105c2565b50565b6105e491905b808211156105e05760008160009055506001016105c8565b5090565b905600a165627a7a72305820e663e1b10d416c97a83f24b13d5aa7bfbcbe858550b9fe51354573b21a38ab210029",
  "source": "pragma solidity ^0.4.0;\ncontract trc {\n    struct forTrueBettor{\n        address forTrueBettorAddress;\n    }\n    struct forFakeBettor{\n        address forFakeBettorAddress;\n    }\n    uint numberOfTrueBettors = 0;\n    uint numberOfFakeBettors = 0;\n    struct trcproposer{\n        uint voteCount;\n    }\n\n    mapping(address => forTrueBettor) forTrueBettors;\n    mapping(address => forFakeBettor) forFakeBettors;\n    address trcProposerAddress;\n    address[] arrayOfForTrueBettorAddress;\n    address[] arrayOfForFakeBettorAddress;\n\n    function get() public pure returns (string) {\n      return \"Hello World!\";\n    }\n    function betForTrue() payable public{\n        require(msg.value == 1 ether);\n        arrayOfForTrueBettorAddress.push(msg.sender);\n        numberOfTrueBettors +=1;\n    }\n    function betForFake() payable public{\n        require(msg.value == 1 ether);\n\n        arrayOfForFakeBettorAddress.push(msg.sender);\n        numberOfFakeBettors +=1;\n    }\n\n    function showBalance() public view returns (uint){\n        return address(this).balance;\n\n    }\n    function howManyBets() public view  returns  (uint,uint){\n        return (numberOfFakeBettors,numberOfTrueBettors);\n    }\n    function getAddress() public view  returns (address){\n        return arrayOfForTrueBettorAddress[0] ;\n    }\n    function terminateTheBet() public {\n\n        if (numberOfFakeBettors > numberOfTrueBettors){\n            uint rewardAmout = address(this).balance / numberOfFakeBettors ;\n            for (uint i = 0; i < numberOfFakeBettors; i++){\n                arrayOfForFakeBettorAddress[i].transfer(rewardAmout);\n            }\n        }\n        if (numberOfFakeBettors < numberOfTrueBettors){\n            uint rewardAmout2 = address(this).balance / numberOfTrueBettors ;\n            for (uint l = 0; l < numberOfTrueBettors; l++){\n                arrayOfForTrueBettorAddress[l].transfer(rewardAmout2);\n            }\n        }\n        rewardAmout = 0;\n        rewardAmout2 = 0;\n        delete arrayOfForTrueBettorAddress;\n        delete arrayOfForFakeBettorAddress;\n        numberOfTrueBettors = 0;\n        numberOfFakeBettors = 0;\n\n\n\n\n\n    }\n}\n",
  "sourcePath": "/Users/satoshi/trc2/contracts/trc.sol",
  "compiler": {
    "name": "solc",
    "version": "0.4.24+commit.e67f0147.Emscripten.clang"
  },
  "schemaVersion": "2.0.1",
  "updatedAt": "2018-11-02T05:29:35.629Z"
}